{
  "_format": "hh-sol-artifact-1",
  "contractName": "Tunify",
  "sourceName": "contracts/Tunify.sol",
  "abi": [
    {
      "anonymous": false,
      "inputs": [
        {
          "indexed": false,
          "internalType": "uint256",
          "name": "artisteId",
          "type": "uint256"
        },
        {
          "indexed": false,
          "internalType": "uint256",
          "name": "userId",
          "type": "uint256"
        },
        {
          "indexed": false,
          "internalType": "uint256",
          "name": "followers",
          "type": "uint256"
        }
      ],
      "name": "followArtiste",
      "type": "event"
    },
    {
      "anonymous": false,
      "inputs": [
        {
          "indexed": false,
          "internalType": "uint256",
          "name": "songId",
          "type": "uint256"
        },
        {
          "indexed": false,
          "internalType": "uint256",
          "name": "userId",
          "type": "uint256"
        },
        {
          "indexed": false,
          "internalType": "string",
          "name": "userEmail",
          "type": "string"
        },
        {
          "indexed": false,
          "internalType": "uint256",
          "name": "noOfStars",
          "type": "uint256"
        }
      ],
      "name": "songAddedToAlbum",
      "type": "event"
    },
    {
      "anonymous": false,
      "inputs": [
        {
          "indexed": false,
          "internalType": "uint256",
          "name": "songId",
          "type": "uint256"
        },
        {
          "indexed": false,
          "internalType": "uint256",
          "name": "userId",
          "type": "uint256"
        },
        {
          "indexed": false,
          "internalType": "uint256",
          "name": "noOfLikes",
          "type": "uint256"
        },
        {
          "indexed": false,
          "internalType": "string",
          "name": "userEmail",
          "type": "string"
        }
      ],
      "name": "songLiked",
      "type": "event"
    },
    {
      "anonymous": false,
      "inputs": [
        {
          "indexed": false,
          "internalType": "uint256",
          "name": "songId",
          "type": "uint256"
        },
        {
          "indexed": false,
          "internalType": "uint256",
          "name": "price",
          "type": "uint256"
        },
        {
          "indexed": false,
          "internalType": "string",
          "name": "songName",
          "type": "string"
        },
        {
          "indexed": false,
          "internalType": "string",
          "name": "songType",
          "type": "string"
        },
        {
          "indexed": false,
          "internalType": "string",
          "name": "genre",
          "type": "string"
        },
        {
          "indexed": false,
          "internalType": "uint256",
          "name": "artisteId",
          "type": "uint256"
        },
        {
          "indexed": false,
          "internalType": "address",
          "name": "artisteAddress",
          "type": "address"
        },
        {
          "indexed": false,
          "internalType": "string",
          "name": "songFile",
          "type": "string"
        },
        {
          "indexed": false,
          "internalType": "uint256",
          "name": "noOfLikes",
          "type": "uint256"
        },
        {
          "indexed": false,
          "internalType": "uint256",
          "name": "noOfStars",
          "type": "uint256"
        },
        {
          "indexed": false,
          "internalType": "string",
          "name": "dateUploaded",
          "type": "string"
        },
        {
          "indexed": false,
          "internalType": "uint256",
          "name": "total",
          "type": "uint256"
        }
      ],
      "name": "songUploaded",
      "type": "event"
    },
    {
      "anonymous": false,
      "inputs": [
        {
          "indexed": false,
          "internalType": "uint256",
          "name": "userId",
          "type": "uint256"
        },
        {
          "indexed": false,
          "internalType": "string",
          "name": "userName",
          "type": "string"
        },
        {
          "indexed": false,
          "internalType": "address",
          "name": "userAddress",
          "type": "address"
        },
        {
          "indexed": false,
          "internalType": "string",
          "name": "userEmail",
          "type": "string"
        },
        {
          "indexed": false,
          "internalType": "string",
          "name": "dateRegistered",
          "type": "string"
        },
        {
          "indexed": false,
          "internalType": "uint256",
          "name": "noOfUploadedSongs",
          "type": "uint256"
        },
        {
          "indexed": false,
          "internalType": "uint256",
          "name": "noOfFollowers",
          "type": "uint256"
        },
        {
          "indexed": false,
          "internalType": "uint256",
          "name": "noOfSongsInAlbum",
          "type": "uint256"
        }
      ],
      "name": "userRegistered",
      "type": "event"
    },
    {
      "stateMutability": "payable",
      "type": "fallback"
    },
    {
      "inputs": [
        {
          "internalType": "uint256",
          "name": "_songId",
          "type": "uint256"
        }
      ],
      "name": "StarSong",
      "outputs": [],
      "stateMutability": "nonpayable",
      "type": "function"
    },
    {
      "inputs": [
        {
          "internalType": "uint256",
          "name": "_songId",
          "type": "uint256"
        },
        {
          "internalType": "address",
          "name": "sender",
          "type": "address"
        }
      ],
      "name": "WhatDidIAddtoAlbum",
      "outputs": [
        {
          "internalType": "bool",
          "name": "",
          "type": "bool"
        }
      ],
      "stateMutability": "view",
      "type": "function"
    },
    {
      "inputs": [
        {
          "internalType": "uint256",
          "name": "_songId",
          "type": "uint256"
        },
        {
          "internalType": "address",
          "name": "sender",
          "type": "address"
        }
      ],
      "name": "WhatDidILike",
      "outputs": [
        {
          "internalType": "bool",
          "name": "",
          "type": "bool"
        }
      ],
      "stateMutability": "view",
      "type": "function"
    },
    {
      "inputs": [
        {
          "internalType": "uint256",
          "name": "_songId",
          "type": "uint256"
        },
        {
          "internalType": "uint256",
          "name": "_userId",
          "type": "uint256"
        }
      ],
      "name": "downloadSongs",
      "outputs": [],
      "stateMutability": "payable",
      "type": "function"
    },
    {
      "inputs": [],
      "name": "fetchAllSongs",
      "outputs": [
        {
          "components": [
            {
              "internalType": "uint256",
              "name": "songId",
              "type": "uint256"
            },
            {
              "internalType": "uint256",
              "name": "price",
              "type": "uint256"
            },
            {
              "internalType": "string",
              "name": "songName",
              "type": "string"
            },
            {
              "internalType": "string",
              "name": "songType",
              "type": "string"
            },
            {
              "internalType": "string",
              "name": "genre",
              "type": "string"
            },
            {
              "internalType": "uint256",
              "name": "artisteId",
              "type": "uint256"
            },
            {
              "internalType": "address",
              "name": "artisteAddress",
              "type": "address"
            },
            {
              "internalType": "string",
              "name": "songFile",
              "type": "string"
            },
            {
              "internalType": "uint256",
              "name": "noOfLikes",
              "type": "uint256"
            },
            {
              "internalType": "uint256",
              "name": "noOfStars",
              "type": "uint256"
            },
            {
              "internalType": "string",
              "name": "dateUploaded",
              "type": "string"
            }
          ],
          "internalType": "struct Tunify.Songs[]",
          "name": "",
          "type": "tuple[]"
        }
      ],
      "stateMutability": "view",
      "type": "function"
    },
    {
      "inputs": [],
      "name": "fetchUsers",
      "outputs": [
        {
          "components": [
            {
              "internalType": "uint256",
              "name": "userId",
              "type": "uint256"
            },
            {
              "internalType": "string",
              "name": "userName",
              "type": "string"
            },
            {
              "internalType": "address",
              "name": "userAddress",
              "type": "address"
            },
            {
              "internalType": "string",
              "name": "userEmail",
              "type": "string"
            },
            {
              "internalType": "string",
              "name": "dateRegistered",
              "type": "string"
            },
            {
              "internalType": "uint256",
              "name": "noOfUploadedSongs",
              "type": "uint256"
            },
            {
              "internalType": "uint256",
              "name": "noOfFollowers",
              "type": "uint256"
            },
            {
              "internalType": "uint256",
              "name": "noOfSongsInAlbum",
              "type": "uint256"
            }
          ],
          "internalType": "struct Tunify.RegisteredUsers[]",
          "name": "",
          "type": "tuple[]"
        }
      ],
      "stateMutability": "view",
      "type": "function"
    },
    {
      "inputs": [
        {
          "internalType": "uint256",
          "name": "_songId",
          "type": "uint256"
        },
        {
          "internalType": "uint256",
          "name": "userId",
          "type": "uint256"
        }
      ],
      "name": "followArtist",
      "outputs": [],
      "stateMutability": "nonpayable",
      "type": "function"
    },
    {
      "inputs": [
        {
          "internalType": "uint256",
          "name": "_songid",
          "type": "uint256"
        }
      ],
      "name": "likeSong",
      "outputs": [],
      "stateMutability": "nonpayable",
      "type": "function"
    },
    {
      "inputs": [],
      "name": "noOfAllRegisteredUsers",
      "outputs": [
        {
          "internalType": "uint256",
          "name": "_value",
          "type": "uint256"
        }
      ],
      "stateMutability": "view",
      "type": "function"
    },
    {
      "inputs": [],
      "name": "noOfAllSongs",
      "outputs": [
        {
          "internalType": "uint256",
          "name": "_value",
          "type": "uint256"
        }
      ],
      "stateMutability": "view",
      "type": "function"
    },
    {
      "inputs": [
        {
          "internalType": "string",
          "name": "_name",
          "type": "string"
        },
        {
          "internalType": "address",
          "name": "_address",
          "type": "address"
        },
        {
          "internalType": "string",
          "name": "_email",
          "type": "string"
        },
        {
          "internalType": "string",
          "name": "_date",
          "type": "string"
        }
      ],
      "name": "registerUsers",
      "outputs": [],
      "stateMutability": "nonpayable",
      "type": "function"
    },
    {
      "inputs": [
        {
          "internalType": "uint256",
          "name": "_price",
          "type": "uint256"
        },
        {
          "internalType": "string",
          "name": "_songName",
          "type": "string"
        },
        {
          "internalType": "string",
          "name": "_songType",
          "type": "string"
        },
        {
          "internalType": "string",
          "name": "_genre",
          "type": "string"
        },
        {
          "internalType": "uint256",
          "name": "_artisteId",
          "type": "uint256"
        },
        {
          "internalType": "string",
          "name": "_songFile",
          "type": "string"
        },
        {
          "internalType": "string",
          "name": "_date",
          "type": "string"
        }
      ],
      "name": "uploadSongs",
      "outputs": [],
      "stateMutability": "nonpayable",
      "type": "function"
    },
    {
      "stateMutability": "payable",
      "type": "receive"
    }
  ],
  "bytecode": "0x608060405234801561001057600080fd5b5060016000819055506130c2806100286000396000f3fe6080604052600436106100ab5760003560e01c80637d32e437116100645780637d32e437146101c25780638b844516146101ed57806395f673751461020957806395f914cd14610232578063bfcad4331461026f578063c90339091461029a576100b2565b80630f7a0dc0146100b457806314870410146100dd5780631d3746c1146101085780631dcb8755146101315780633c279b4e1461015c5780633f4c388214610185576100b2565b366100b257005b005b3480156100c057600080fd5b506100db60048036038101906100d6919061226c565b6102c3565b005b3480156100e957600080fd5b506100f261062f565b6040516100ff91906123a9565b60405180910390f35b34801561011457600080fd5b5061012f600480360381019061012a91906123c4565b61063b565b005b34801561013d57600080fd5b506101466107ef565b60405161015391906126a9565b60405180910390f35b34801561016857600080fd5b50610183600480360381019061017e91906126cb565b610c6c565b005b34801561019157600080fd5b506101ac60048036038101906101a79190612724565b6110c6565b6040516101b9919061277f565b60405180910390f35b3480156101ce57600080fd5b506101d7611133565b6040516101e491906123a9565b60405180910390f35b610207600480360381019061020291906123c4565b61113f565b005b34801561021557600080fd5b50610230600480360381019061022b919061279a565b6112d2565b005b34801561023e57600080fd5b5061025960048036038101906102549190612724565b6115a8565b604051610266919061277f565b60405180910390f35b34801561027b57600080fd5b50610284611615565b60405161029191906129d5565b60405180910390f35b3480156102a657600080fd5b506102c160048036038101906102bc91906126cb565b611954565b005b60011515600560003373ffffffffffffffffffffffffffffffffffffffff1673ffffffffffffffffffffffffffffffffffffffff16815260200190815260200160002060009054906101000a900460ff16151514610356576040517f08c379a000000000000000000000000000000000000000000000000000000000815260040161034d90612a54565b60405180910390fd5b6103606001611f4a565b60008061036d6001611f60565b90506040518061016001604052808281526020018a81526020018981526020018881526020018781526020018681526020013373ffffffffffffffffffffffffffffffffffffffff168152602001858152602001600081526020016000815260200184815250600a600083815260200190815260200160002060008201518160000155602082015181600101556040820151816002019080519060200190610416929190611f6e565b506060820151816003019080519060200190610433929190611f6e565b506080820151816004019080519060200190610450929190611f6e565b5060a0820151816005015560c08201518160060160006101000a81548173ffffffffffffffffffffffffffffffffffffffff021916908373ffffffffffffffffffffffffffffffffffffffff16021790555060e08201518160070190805190602001906104be929190611f6e565b506101008201518160080155610120820151816009015561014082015181600a0190805190602001906104f2929190611f6e565b5090505060006105026002611f60565b905060005b818110156105d457600460006001836105209190612aa3565b815260200190815260200160002060020160009054906101000a900473ffffffffffffffffffffffffffffffffffffffff1673ffffffffffffffffffffffffffffffffffffffff163373ffffffffffffffffffffffffffffffffffffffff1614156105c1576001600460006001846105989190612aa3565b815260200190815260200160002060050160008282546105b89190612aa3565b92505081905593505b80806105cc90612af9565b915050610507565b507f8b314005665abb83676c46f8223b6ddda4ff77d73966bf707fd02da9628e857d828b8b8b8b8b338c6000808e8e60405161061b9c9b9a99989796959493929190612bcf565b60405180910390a150505050505050505050565b60028060000154905081565b60006106476002611f60565b90506000806000600a6000878152602001908152602001600020600501549050600a600087815260200190815260200160002060060160009054906101000a900473ffffffffffffffffffffffffffffffffffffffff16925060005b8481101561076e57600460006001836106bc9190612aa3565b815260200190815260200160002060020160009054906101000a900473ffffffffffffffffffffffffffffffffffffffff1673ffffffffffffffffffffffffffffffffffffffff168473ffffffffffffffffffffffffffffffffffffffff16141561075b57600460006001836107329190612aa3565b8152602001908152602001600020600601600081548092919061075490612af9565b9190505592505b808061076690612af9565b9150506106a3565b50600160086000838152602001908152602001600020600087815260200190815260200160002060006101000a81548160ff0219169083151502179055507f6f3273fe42a65f5035e7c53716d89095c9a288d75618cae7b114623955b08fd78186846040516107df93929190612cac565b60405180910390a1505050505050565b606060006107fd6001611f60565b9050600081905060008267ffffffffffffffff8111156108205761081f612141565b5b60405190808252806020026020018201604052801561085957816020015b610846611ff4565b81526020019060019003908161083e5790505b50905060005b83811015610c62576000600a600060018461087a9190612aa3565b81526020019081526020016000206000015490506000600a60008381526020019081526020016000209050806040518061016001604052908160008201548152602001600182015481526020016002820180546108d690612d12565b80601f016020809104026020016040519081016040528092919081815260200182805461090290612d12565b801561094f5780601f106109245761010080835404028352916020019161094f565b820191906000526020600020905b81548152906001019060200180831161093257829003601f168201915b5050505050815260200160038201805461096890612d12565b80601f016020809104026020016040519081016040528092919081815260200182805461099490612d12565b80156109e15780601f106109b6576101008083540402835291602001916109e1565b820191906000526020600020905b8154815290600101906020018083116109c457829003601f168201915b505050505081526020016004820180546109fa90612d12565b80601f0160208091040260200160405190810160405280929190818152602001828054610a2690612d12565b8015610a735780601f10610a4857610100808354040283529160200191610a73565b820191906000526020600020905b815481529060010190602001808311610a5657829003601f168201915b50505050508152602001600582015481526020016006820160009054906101000a900473ffffffffffffffffffffffffffffffffffffffff1673ffffffffffffffffffffffffffffffffffffffff1673ffffffffffffffffffffffffffffffffffffffff168152602001600782018054610aec90612d12565b80601f0160208091040260200160405190810160405280929190818152602001828054610b1890612d12565b8015610b655780601f10610b3a57610100808354040283529160200191610b65565b820191906000526020600020905b815481529060010190602001808311610b4857829003601f168201915b505050505081526020016008820154815260200160098201548152602001600a82018054610b9290612d12565b80601f0160208091040260200160405190810160405280929190818152602001828054610bbe90612d12565b8015610c0b5780601f10610be057610100808354040283529160200191610c0b565b820191906000526020600020905b815481529060010190602001808311610bee57829003601f168201915b50505050508152505084600187610c229190612d44565b81518110610c3357610c32612d78565b5b6020026020010181905250600185610c4b9190612d44565b945050508080610c5a90612af9565b91505061085f565b5080935050505090565b6000610c786001611f60565b90506000610c866002611f60565b9050600080606060011515600960003373ffffffffffffffffffffffffffffffffffffffff1673ffffffffffffffffffffffffffffffffffffffff168152602001908152602001600020600088815260200190815260200160002060009054906101000a900460ff1615151415610e0a5760005b85811015610e0457600a6000600183610d139190612aa3565b815260200190815260200160002060000154871415610df157600a6000600183610d3d9190612aa3565b8152602001908152602001600020600801549250600183610d5e9190612d44565b925082600a6000600184610d729190612aa3565b8152602001908152602001600020600801819055506000600960003373ffffffffffffffffffffffffffffffffffffffff1673ffffffffffffffffffffffffffffffffffffffff168152602001908152602001600020600089815260200190815260200160002060006101000a81548160ff0219169083151502179055505b8080610dfc90612af9565b915050610cfa565b50610f19565b60005b85811015610f1757600a6000600183610e269190612aa3565b815260200190815260200160002060000154871415610f0457600a6000600183610e509190612aa3565b8152602001908152602001600020600801549250600183610e719190612aa3565b925082600a6000600184610e859190612aa3565b8152602001908152602001600020600801819055506001600960003373ffffffffffffffffffffffffffffffffffffffff1673ffffffffffffffffffffffffffffffffffffffff168152602001908152602001600020600089815260200190815260200160002060006101000a81548160ff0219169083151502179055505b8080610f0f90612af9565b915050610e0d565b505b60005b848110156110805760046000600183610f359190612aa3565b815260200190815260200160002060020160009054906101000a900473ffffffffffffffffffffffffffffffffffffffff1673ffffffffffffffffffffffffffffffffffffffff163373ffffffffffffffffffffffffffffffffffffffff16141561106d5760046000600183610fab9190612aa3565b815260200190815260200160002060000154935060046000600183610fd09190612aa3565b81526020019081526020016000206003018054610fec90612d12565b80601f016020809104026020016040519081016040528092919081815260200182805461101890612d12565b80156110655780601f1061103a57610100808354040283529160200191611065565b820191906000526020600020905b81548152906001019060200180831161104857829003601f168201915b505050505091505b808061107890612af9565b915050610f1c565b507fb6d278e6396887e6bd74f528dfd0446cc6ad4c5924d65bf7346c4ccb895fcee2868484846040516110b69493929190612da7565b60405180910390a1505050505050565b600080600660008473ffffffffffffffffffffffffffffffffffffffff1673ffffffffffffffffffffffffffffffffffffffff168152602001908152602001600020600085815260200190815260200160002060009054906101000a900460ff1690508091505092915050565b60018060000154905081565b60026000541415611185576040517f08c379a000000000000000000000000000000000000000000000000000000000815260040161117c90612e3f565b60405180910390fd5b60026000819055506000600a60008481526020019081526020016000206001015490508034146111ea576040517f08c379a00000000000000000000000000000000000000000000000000000000081526004016111e190612ed1565b60405180910390fd5b600080600a6000868152602001908152602001600020600501549150600a600086815260200190815260200160002060060160009054906101000a900473ffffffffffffffffffffffffffffffffffffffff1690508073ffffffffffffffffffffffffffffffffffffffff166108fc349081150290604051600060405180830381858888f19350505050158015611285573d6000803e3d6000fd5b50600160076000878152602001908152602001600020600086815260200190815260200160002060006101000a81548160ff02191690831515021790555050505060016000819055505050565b60026000541415611318576040517f08c379a000000000000000000000000000000000000000000000000000000000815260040161130f90612e3f565b60405180910390fd5b600260008190555060001515600560003373ffffffffffffffffffffffffffffffffffffffff1673ffffffffffffffffffffffffffffffffffffffff16815260200190815260200160002060009054906101000a900460ff161515146113b3576040517f08c379a00000000000000000000000000000000000000000000000000000000081526004016113aa90612f63565b60405180910390fd5b6113bd6002611f4a565b60006113c96002611f60565b90506040518061010001604052808281526020018681526020018573ffffffffffffffffffffffffffffffffffffffff1681526020018481526020018381526020016000815260200160008152602001600081525060046000838152602001908152602001600020600082015181600001556020820151816001019080519060200190611457929190611f6e565b5060408201518160020160006101000a81548173ffffffffffffffffffffffffffffffffffffffff021916908373ffffffffffffffffffffffffffffffffffffffff16021790555060608201518160030190805190602001906114bb929190611f6e565b5060808201518160040190805190602001906114d8929190611f6e565b5060a0820151816005015560c0820151816006015560e082015181600701559050506001600560003373ffffffffffffffffffffffffffffffffffffffff1673ffffffffffffffffffffffffffffffffffffffff16815260200190815260200160002060006101000a81548160ff0219169083151502179055507fdcdf0381c0c5de6b35af8ea7f47eec9cca8d41b8e22b025ecec72edef75c961b81868686866000806000604051611591989796959493929190612f83565b60405180910390a150600160008190555050505050565b600080600960008473ffffffffffffffffffffffffffffffffffffffff1673ffffffffffffffffffffffffffffffffffffffff168152602001908152602001600020600085815260200190815260200160002060009054906101000a900460ff1690508091505092915050565b606060006116236002611f60565b90506000808267ffffffffffffffff81111561164257611641612141565b5b60405190808252806020026020018201604052801561167b57816020015b611668612064565b8152602001906001900390816116605790505b50905060005b8381101561194a5760006004600060018461169c9190612aa3565b815260200190815260200160002060000154905060006004600083815260200190815260200160002090508060405180610100016040529081600082015481526020016001820180546116ee90612d12565b80601f016020809104026020016040519081016040528092919081815260200182805461171a90612d12565b80156117675780601f1061173c57610100808354040283529160200191611767565b820191906000526020600020905b81548152906001019060200180831161174a57829003601f168201915b505050505081526020016002820160009054906101000a900473ffffffffffffffffffffffffffffffffffffffff1673ffffffffffffffffffffffffffffffffffffffff1673ffffffffffffffffffffffffffffffffffffffff1681526020016003820180546117d690612d12565b80601f016020809104026020016040519081016040528092919081815260200182805461180290612d12565b801561184f5780601f106118245761010080835404028352916020019161184f565b820191906000526020600020905b81548152906001019060200180831161183257829003601f168201915b5050505050815260200160048201805461186890612d12565b80601f016020809104026020016040519081016040528092919081815260200182805461189490612d12565b80156118e15780601f106118b6576101008083540402835291602001916118e1565b820191906000526020600020905b8154815290600101906020018083116118c457829003601f168201915b50505050508152602001600582015481526020016006820154815260200160078201548152505084868151811061191b5761191a612d78565b5b60200260200101819052506001856119339190612aa3565b94505050808061194290612af9565b915050611681565b5080935050505090565b60006119606001611f60565b9050600061196e6002611f60565b9050600080606060011515600660003373ffffffffffffffffffffffffffffffffffffffff1673ffffffffffffffffffffffffffffffffffffffff168152602001908152602001600020600088815260200190815260200160002060009054906101000a900460ff1615151415611bc05760005b85811015611aec57600a60006001836119fb9190612aa3565b815260200190815260200160002060000154871415611ad957600a6000600183611a259190612aa3565b8152602001908152602001600020600901549250600183611a469190612d44565b925082600a6000600184611a5a9190612aa3565b8152602001908152602001600020600901819055506000600660003373ffffffffffffffffffffffffffffffffffffffff1673ffffffffffffffffffffffffffffffffffffffff168152602001908152602001600020600089815260200190815260200160002060006101000a81548160ff0219169083151502179055505b8080611ae490612af9565b9150506119e2565b5060005b84811015611bba5760046000600183611b099190612aa3565b815260200190815260200160002060020160009054906101000a900473ffffffffffffffffffffffffffffffffffffffff1673ffffffffffffffffffffffffffffffffffffffff163373ffffffffffffffffffffffffffffffffffffffff161415611ba75760046000600183611b7f9190612aa3565b81526020019081526020016000206007016000815480929190611ba190613016565b91905055505b8080611bb290612af9565b915050611af0565b50611d9d565b60005b85811015611ccd57600a6000600183611bdc9190612aa3565b815260200190815260200160002060000154871415611cba57600a6000600183611c069190612aa3565b8152602001908152602001600020600901549250600183611c279190612aa3565b925082600a6000600184611c3b9190612aa3565b8152602001908152602001600020600901819055506001600660003373ffffffffffffffffffffffffffffffffffffffff1673ffffffffffffffffffffffffffffffffffffffff168152602001908152602001600020600089815260200190815260200160002060006101000a81548160ff0219169083151502179055505b8080611cc590612af9565b915050611bc3565b5060005b84811015611d9b5760046000600183611cea9190612aa3565b815260200190815260200160002060020160009054906101000a900473ffffffffffffffffffffffffffffffffffffffff1673ffffffffffffffffffffffffffffffffffffffff163373ffffffffffffffffffffffffffffffffffffffff161415611d885760046000600183611d609190612aa3565b81526020019081526020016000206007016000815480929190611d8290612af9565b91905055505b8080611d9390612af9565b915050611cd1565b505b60005b84811015611f045760046000600183611db99190612aa3565b815260200190815260200160002060020160009054906101000a900473ffffffffffffffffffffffffffffffffffffffff1673ffffffffffffffffffffffffffffffffffffffff163373ffffffffffffffffffffffffffffffffffffffff161415611ef15760046000600183611e2f9190612aa3565b815260200190815260200160002060000154935060046000600183611e549190612aa3565b81526020019081526020016000206003018054611e7090612d12565b80601f0160208091040260200160405190810160405280929190818152602001828054611e9c90612d12565b8015611ee95780601f10611ebe57610100808354040283529160200191611ee9565b820191906000526020600020905b815481529060010190602001808311611ecc57829003601f168201915b505050505091505b8080611efc90612af9565b915050611da0565b507fc21ab2e28600f18042f2dff5dde09414f1d600758c7f730a8ae451e6499aaf6686848385604051611f3a9493929190613040565b60405180910390a1505050505050565b6001816000016000828254019250508190555050565b600081600001549050919050565b828054611f7a90612d12565b90600052602060002090601f016020900481019282611f9c5760008555611fe3565b82601f10611fb557805160ff1916838001178555611fe3565b82800160010185558215611fe3579182015b82811115611fe2578251825591602001919060010190611fc7565b5b509050611ff091906120bf565b5090565b604051806101600160405280600081526020016000815260200160608152602001606081526020016060815260200160008152602001600073ffffffffffffffffffffffffffffffffffffffff168152602001606081526020016000815260200160008152602001606081525090565b6040518061010001604052806000815260200160608152602001600073ffffffffffffffffffffffffffffffffffffffff16815260200160608152602001606081526020016000815260200160008152602001600081525090565b5b808211156120d85760008160009055506001016120c0565b5090565b6000604051905090565b600080fd5b600080fd5b6000819050919050565b612103816120f0565b811461210e57600080fd5b50565b600081359050612120816120fa565b92915050565b600080fd5b600080fd5b6000601f19601f8301169050919050565b7f4e487b7100000000000000000000000000000000000000000000000000000000600052604160045260246000fd5b61217982612130565b810181811067ffffffffffffffff8211171561219857612197612141565b5b80604052505050565b60006121ab6120dc565b90506121b78282612170565b919050565b600067ffffffffffffffff8211156121d7576121d6612141565b5b6121e082612130565b9050602081019050919050565b82818337600083830152505050565b600061220f61220a846121bc565b6121a1565b90508281526020810184848401111561222b5761222a61212b565b5b6122368482856121ed565b509392505050565b600082601f83011261225357612252612126565b5b81356122638482602086016121fc565b91505092915050565b600080600080600080600060e0888a03121561228b5761228a6120e6565b5b60006122998a828b01612111565b975050602088013567ffffffffffffffff8111156122ba576122b96120eb565b5b6122c68a828b0161223e565b965050604088013567ffffffffffffffff8111156122e7576122e66120eb565b5b6122f38a828b0161223e565b955050606088013567ffffffffffffffff811115612314576123136120eb565b5b6123208a828b0161223e565b94505060806123318a828b01612111565b93505060a088013567ffffffffffffffff811115612352576123516120eb565b5b61235e8a828b0161223e565b92505060c088013567ffffffffffffffff81111561237f5761237e6120eb565b5b61238b8a828b0161223e565b91505092959891949750929550565b6123a3816120f0565b82525050565b60006020820190506123be600083018461239a565b92915050565b600080604083850312156123db576123da6120e6565b5b60006123e985828601612111565b92505060206123fa85828601612111565b9150509250929050565b600081519050919050565b600082825260208201905092915050565b6000819050602082019050919050565b612439816120f0565b82525050565b600081519050919050565b600082825260208201905092915050565b60005b8381101561247957808201518184015260208101905061245e565b83811115612488576000848401525b50505050565b60006124998261243f565b6124a3818561244a565b93506124b381856020860161245b565b6124bc81612130565b840191505092915050565b600073ffffffffffffffffffffffffffffffffffffffff82169050919050565b60006124f2826124c7565b9050919050565b612502816124e7565b82525050565b6000610160830160008301516125216000860182612430565b5060208301516125346020860182612430565b506040830151848203604086015261254c828261248e565b91505060608301518482036060860152612566828261248e565b91505060808301518482036080860152612580828261248e565b91505060a083015161259560a0860182612430565b5060c08301516125a860c08601826124f9565b5060e083015184820360e08601526125c0828261248e565b9150506101008301516125d7610100860182612430565b506101208301516125ec610120860182612430565b50610140830151848203610140860152612606828261248e565b9150508091505092915050565b600061261f8383612508565b905092915050565b6000602082019050919050565b600061263f82612404565b612649818561240f565b93508360208202850161265b85612420565b8060005b8581101561269757848403895281516126788582612613565b945061268383612627565b925060208a0199505060018101905061265f565b50829750879550505050505092915050565b600060208201905081810360008301526126c38184612634565b905092915050565b6000602082840312156126e1576126e06120e6565b5b60006126ef84828501612111565b91505092915050565b612701816124e7565b811461270c57600080fd5b50565b60008135905061271e816126f8565b92915050565b6000806040838503121561273b5761273a6120e6565b5b600061274985828601612111565b925050602061275a8582860161270f565b9150509250929050565b60008115159050919050565b61277981612764565b82525050565b60006020820190506127946000830184612770565b92915050565b600080600080608085870312156127b4576127b36120e6565b5b600085013567ffffffffffffffff8111156127d2576127d16120eb565b5b6127de8782880161223e565b94505060206127ef8782880161270f565b935050604085013567ffffffffffffffff8111156128105761280f6120eb565b5b61281c8782880161223e565b925050606085013567ffffffffffffffff81111561283d5761283c6120eb565b5b6128498782880161223e565b91505092959194509250565b600081519050919050565b600082825260208201905092915050565b6000819050602082019050919050565b60006101008301600083015161289a6000860182612430565b50602083015184820360208601526128b2828261248e565b91505060408301516128c760408601826124f9565b50606083015184820360608601526128df828261248e565b915050608083015184820360808601526128f9828261248e565b91505060a083015161290e60a0860182612430565b5060c083015161292160c0860182612430565b5060e083015161293460e0860182612430565b508091505092915050565b600061294b8383612881565b905092915050565b6000602082019050919050565b600061296b82612855565b6129758185612860565b93508360208202850161298785612871565b8060005b858110156129c357848403895281516129a4858261293f565b94506129af83612953565b925060208a0199505060018101905061298b565b50829750879550505050505092915050565b600060208201905081810360008301526129ef8184612960565b905092915050565b600082825260208201905092915050565b7f55736572732063616e742075706c6f6164000000000000000000000000000000600082015250565b6000612a3e6011836129f7565b9150612a4982612a08565b602082019050919050565b60006020820190508181036000830152612a6d81612a31565b9050919050565b7f4e487b7100000000000000000000000000000000000000000000000000000000600052601160045260246000fd5b6000612aae826120f0565b9150612ab9836120f0565b9250827fffffffffffffffffffffffffffffffffffffffffffffffffffffffffffffffff03821115612aee57612aed612a74565b5b828201905092915050565b6000612b04826120f0565b91507fffffffffffffffffffffffffffffffffffffffffffffffffffffffffffffffff821415612b3757612b36612a74565b5b600182019050919050565b6000612b4d8261243f565b612b5781856129f7565b9350612b6781856020860161245b565b612b7081612130565b840191505092915050565b612b84816124e7565b82525050565b6000819050919050565b6000819050919050565b6000612bb9612bb4612baf84612b8a565b612b94565b6120f0565b9050919050565b612bc981612b9e565b82525050565b600061018082019050612be5600083018f61239a565b612bf2602083018e61239a565b8181036040830152612c04818d612b42565b90508181036060830152612c18818c612b42565b90508181036080830152612c2c818b612b42565b9050612c3b60a083018a61239a565b612c4860c0830189612b7b565b81810360e0830152612c5a8188612b42565b9050612c6a610100830187612bc0565b612c78610120830186612bc0565b818103610140830152612c8b8185612b42565b9050612c9b61016083018461239a565b9d9c50505050505050505050505050565b6000606082019050612cc1600083018661239a565b612cce602083018561239a565b612cdb604083018461239a565b949350505050565b7f4e487b7100000000000000000000000000000000000000000000000000000000600052602260045260246000fd5b60006002820490506001821680612d2a57607f821691505b60208210811415612d3e57612d3d612ce3565b5b50919050565b6000612d4f826120f0565b9150612d5a836120f0565b925082821015612d6d57612d6c612a74565b5b828203905092915050565b7f4e487b7100000000000000000000000000000000000000000000000000000000600052603260045260246000fd5b6000608082019050612dbc600083018761239a565b612dc9602083018661239a565b612dd6604083018561239a565b8181036060830152612de88184612b42565b905095945050505050565b7f5265656e7472616e637947756172643a207265656e7472616e742063616c6c00600082015250565b6000612e29601f836129f7565b9150612e3482612df3565b602082019050919050565b60006020820190508181036000830152612e5881612e1c565b9050919050565b7f706c65617365207375626d6974207468652061736b696e67207072696365206960008201527f6e206f7264657220746f20636f6d706c6574652074686520646f776e6c6f6164602082015250565b6000612ebb6040836129f7565b9150612ec682612e5f565b604082019050919050565b60006020820190508181036000830152612eea81612eae565b9050919050565b7f596f752061726520616c726561647920612075736572206f662074686973206460008201527f6170700000000000000000000000000000000000000000000000000000000000602082015250565b6000612f4d6023836129f7565b9150612f5882612ef1565b604082019050919050565b60006020820190508181036000830152612f7c81612f40565b9050919050565b600061010082019050612f99600083018b61239a565b8181036020830152612fab818a612b42565b9050612fba6040830189612b7b565b8181036060830152612fcc8188612b42565b90508181036080830152612fe08187612b42565b9050612fef60a0830186612bc0565b612ffc60c0830185612bc0565b61300960e0830184612bc0565b9998505050505050505050565b6000613021826120f0565b9150600082141561303557613034612a74565b5b600182039050919050565b6000608082019050613055600083018761239a565b613062602083018661239a565b81810360408301526130748185612b42565b9050613083606083018461239a565b9594505050505056fea26469706673582212208dd419f3129cbd37000960cd052229c9aa0714e32158be1844e23d4cc32320a964736f6c63430008090033",
  "linkReferences": {},
  "deployedLinkReferences": {}
}